{
  "contractName": "BikeRegistry",
  "abi": [
    {
      "constant": false,
      "inputs": [],
      "name": "renounceOwnership",
      "outputs": [],
      "payable": false,
      "stateMutability": "nonpayable",
      "type": "function"
    },
    {
      "constant": true,
      "inputs": [],
      "name": "nextBikeNum",
      "outputs": [
        {
          "name": "",
          "type": "uint256"
        }
      ],
      "payable": false,
      "stateMutability": "view",
      "type": "function"
    },
    {
      "constant": true,
      "inputs": [],
      "name": "owner",
      "outputs": [
        {
          "name": "",
          "type": "address"
        }
      ],
      "payable": false,
      "stateMutability": "view",
      "type": "function"
    },
    {
      "constant": true,
      "inputs": [],
      "name": "isOwner",
      "outputs": [
        {
          "name": "",
          "type": "bool"
        }
      ],
      "payable": false,
      "stateMutability": "view",
      "type": "function"
    },
    {
      "constant": false,
      "inputs": [
        {
          "name": "newOwner",
          "type": "address"
        }
      ],
      "name": "transferOwnership",
      "outputs": [],
      "payable": false,
      "stateMutability": "nonpayable",
      "type": "function"
    },
    {
      "anonymous": false,
      "inputs": [
        {
          "indexed": true,
          "name": "previousOwner",
          "type": "address"
        },
        {
          "indexed": true,
          "name": "newOwner",
          "type": "address"
        }
      ],
      "name": "OwnershipTransferred",
      "type": "event"
    },
    {
      "constant": false,
      "inputs": [
        {
          "name": "_name",
          "type": "string"
        },
        {
          "name": "_color",
          "type": "string"
        },
        {
          "name": "_wheels",
          "type": "uint256"
        },
        {
          "name": "_brakes",
          "type": "string"
        },
        {
          "name": "_basket",
          "type": "string"
        }
      ],
      "name": "registerBike",
      "outputs": [
        {
          "name": "bikeID",
          "type": "uint256"
        }
      ],
      "payable": false,
      "stateMutability": "nonpayable",
      "type": "function"
    },
    {
      "constant": true,
      "inputs": [
        {
          "name": "bikeID",
          "type": "uint256"
        }
      ],
      "name": "getBike",
      "outputs": [
        {
          "name": "_name",
          "type": "string"
        },
        {
          "name": "_color",
          "type": "string"
        },
        {
          "name": "_wheels",
          "type": "uint256"
        },
        {
          "name": "_brakes",
          "type": "string"
        },
        {
          "name": "basket",
          "type": "string"
        }
      ],
      "payable": false,
      "stateMutability": "view",
      "type": "function"
    }
  ],
  "bytecode": "0x6080604052336000806101000a81548173ffffffffffffffffffffffffffffffffffffffff021916908373ffffffffffffffffffffffffffffffffffffffff1602179055506000809054906101000a900473ffffffffffffffffffffffffffffffffffffffff1673ffffffffffffffffffffffffffffffffffffffff16600073ffffffffffffffffffffffffffffffffffffffff167f8be0079c531659141344cd1fd0a4f28419497f9722a3daafe3b4186f6b6457e060405160405180910390a3610c73806100cf6000396000f300608060405260043610610083576000357c0100000000000000000000000000000000000000000000000000000000900463ffffffff16806301f7deba14610088578063715018a6146101e1578063828e80a7146101f85780638da5cb5b146102235780638f32d59b1461027a578063aafbbe03146102a9578063f2fde38b1461049a575b600080fd5b34801561009457600080fd5b506101cb600480360381019080803590602001908201803590602001908080601f0160208091040260200160405190810160405280939291908181526020018383808284378201915050505050509192919290803590602001908201803590602001908080601f016020809104026020016040519081016040528093929190818152602001838380828437820191505050505050919291929080359060200190929190803590602001908201803590602001908080601f0160208091040260200160405190810160405280939291908181526020018383808284378201915050505050509192919290803590602001908201803590602001908080601f01602080910402602001604051908101604052809392919081815260200183838082843782019150505050505091929192905050506104dd565b6040518082815260200191505060405180910390f35b3480156101ed57600080fd5b506101f66105f5565b005b34801561020457600080fd5b5061020d6106c7565b6040518082815260200191505060405180910390f35b34801561022f57600080fd5b506102386106cd565b604051808273ffffffffffffffffffffffffffffffffffffffff1673ffffffffffffffffffffffffffffffffffffffff16815260200191505060405180910390f35b34801561028657600080fd5b5061028f6106f6565b604051808215151515815260200191505060405180910390f35b3480156102b557600080fd5b506102d46004803603810190808035906020019092919050505061074d565b604051808060200180602001868152602001806020018060200185810385528a818151815260200191508051906020019080838360005b8381101561032657808201518184015260208101905061030b565b50505050905090810190601f1680156103535780820380516001836020036101000a031916815260200191505b50858103845289818151815260200191508051906020019080838360005b8381101561038c578082015181840152602081019050610371565b50505050905090810190601f1680156103b95780820380516001836020036101000a031916815260200191505b50858103835287818151815260200191508051906020019080838360005b838110156103f25780820151818401526020810190506103d7565b50505050905090810190601f16801561041f5780820380516001836020036101000a031916815260200191505b50858103825286818151815260200191508051906020019080838360005b8381101561045857808201518184015260208101905061043d565b50505050905090810190601f1680156104855780820380516001836020036101000a031916815260200191505b50995050505050505050505060405180910390f35b3480156104a657600080fd5b506104db600480360381019080803573ffffffffffffffffffffffffffffffffffffffff169060200190929190505050610a59565b005b600060328651111580156104f357506032855111155b801561050157506032835111155b801561050f57506032825111155b151561051a57600080fd5b6002600081548092919060010191905055905060a06040519081016040528087815260200186815260200185815260200184815260200183815250600160008381526020019081526020016000206000820151816000019080519060200190610584929190610b72565b5060208201518160010190805190602001906105a1929190610b72565b506040820151816002015560608201518160030190805190602001906105c8929190610b72565b5060808201518160040190805190602001906105e5929190610b72565b5090505080905095945050505050565b6105fd6106f6565b151561060857600080fd5b600073ffffffffffffffffffffffffffffffffffffffff166000809054906101000a900473ffffffffffffffffffffffffffffffffffffffff1673ffffffffffffffffffffffffffffffffffffffff167f8be0079c531659141344cd1fd0a4f28419497f9722a3daafe3b4186f6b6457e060405160405180910390a360008060006101000a81548173ffffffffffffffffffffffffffffffffffffffff021916908373ffffffffffffffffffffffffffffffffffffffff160217905550565b60025481565b60008060009054906101000a900473ffffffffffffffffffffffffffffffffffffffff16905090565b60008060009054906101000a900473ffffffffffffffffffffffffffffffffffffffff1673ffffffffffffffffffffffffffffffffffffffff163373ffffffffffffffffffffffffffffffffffffffff1614905090565b606080600060608061075d610bf2565b6002548710151561076d57600080fd5b6001600088815260200190815260200160002060a06040519081016040529081600082018054600181600116156101000203166002900480601f0160208091040260200160405190810160405280929190818152602001828054600181600116156101000203166002900480156108255780601f106107fa57610100808354040283529160200191610825565b820191906000526020600020905b81548152906001019060200180831161080857829003601f168201915b50505050508152602001600182018054600181600116156101000203166002900480601f0160208091040260200160405190810160405280929190818152602001828054600181600116156101000203166002900480156108c75780601f1061089c576101008083540402835291602001916108c7565b820191906000526020600020905b8154815290600101906020018083116108aa57829003601f168201915b5050505050815260200160028201548152602001600382018054600181600116156101000203166002900480601f0160208091040260200160405190810160405280929190818152602001828054600181600116156101000203166002900480156109735780601f1061094857610100808354040283529160200191610973565b820191906000526020600020905b81548152906001019060200180831161095657829003601f168201915b50505050508152602001600482018054600181600116156101000203166002900480601f016020809104026020016040519081016040528092919081815260200182805460018160011615610100020316600290048015610a155780601f106109ea57610100808354040283529160200191610a15565b820191906000526020600020905b8154815290600101906020018083116109f857829003601f168201915b505050505081525050905080600001518160200151826040015183606001518460800151849450839350819150809050955095509550955095505091939590929450565b610a616106f6565b1515610a6c57600080fd5b610a7581610a78565b50565b600073ffffffffffffffffffffffffffffffffffffffff168173ffffffffffffffffffffffffffffffffffffffff1614151515610ab457600080fd5b8073ffffffffffffffffffffffffffffffffffffffff166000809054906101000a900473ffffffffffffffffffffffffffffffffffffffff1673ffffffffffffffffffffffffffffffffffffffff167f8be0079c531659141344cd1fd0a4f28419497f9722a3daafe3b4186f6b6457e060405160405180910390a3806000806101000a81548173ffffffffffffffffffffffffffffffffffffffff021916908373ffffffffffffffffffffffffffffffffffffffff16021790555050565b828054600181600116156101000203166002900490600052602060002090601f016020900481019282601f10610bb357805160ff1916838001178555610be1565b82800160010185558215610be1579182015b82811115610be0578251825591602001919060010190610bc5565b5b509050610bee9190610c22565b5090565b60a06040519081016040528060608152602001606081526020016000815260200160608152602001606081525090565b610c4491905b80821115610c40576000816000905550600101610c28565b5090565b905600a165627a7a7230582038d4392ef18ab7091f69fecdd9bf493f87d578526727d4f9f9876e4b9ef3e8bb0029",
  "source": "import 'openzeppelin-solidity/contracts/ownership/Ownable.sol';\npragma solidity ^0.4.23;\n\ncontract BikeRegistry is Ownable {\n    struct Bike {\n        string name;\n        string color;\n        uint wheels;\n        string brakes;\n        string basket;\n    }\n\n    mapping (uint => Bike) bikes;\n\n    uint public nextBikeNum;\n\n    /* Function registers a bicycle into the Bike Registry */\n    function registerBike(string _name, string _color, uint _wheels, string _brakes, string _basket) public returns (uint bikeID) {\n\n        require( (bytes(_name).length <= 50) && (bytes(_color).length <= 50) && (bytes(_brakes).length <= 50) && (bytes(_basket).length <= 50) );\n\n        bikeID = nextBikeNum++;\n\n        bikes[bikeID] = Bike(_name, _color, _wheels, _brakes, _basket);\n\n        return bikeID;\n    }\n\n    /* Function retrieves bicycle from Bike Registry */\n    function getBike(uint bikeID) view external returns (string _name, string _color, uint _wheels, string _brakes, string basket) {\n\n        require(bikeID < nextBikeNum);\n\n        Bike memory bi = bikes[bikeID];\n\n        return (bi.name, bi.color, bi.wheels, bi.brakes, bi.basket);\n    }\n\n\n}\n",
  "sourcePath": "/Users/PatrickLoughrey/Documents/ethereum-bike-registry/contracts/BikeRegistry.sol",
  "compiler": {
    "name": "solc",
    "version": "0.4.23+commit.124ca40d.Emscripten.clang"
  },
  "schemaVersion": "2.0.0",
  "updatedAt": "2018-10-24T02:07:24.883Z"
}