{
  "contractName": "BikeRegistry",
  "abi": [
    {
      "constant": true,
      "inputs": [],
      "name": "nextBikeNum",
      "outputs": [
        {
          "name": "",
          "type": "uint256"
        }
      ],
      "payable": false,
      "stateMutability": "view",
      "type": "function"
    },
    {
      "constant": true,
      "inputs": [],
      "name": "owner",
      "outputs": [
        {
          "name": "",
          "type": "address"
        }
      ],
      "payable": false,
      "stateMutability": "view",
      "type": "function"
    },
    {
      "constant": false,
      "inputs": [
        {
          "name": "_name",
          "type": "string"
        },
        {
          "name": "_color",
          "type": "string"
        },
        {
          "name": "_wheels",
          "type": "uint256"
        },
        {
          "name": "_brakes",
          "type": "string"
        },
        {
          "name": "_basket",
          "type": "string"
        }
      ],
      "name": "registerBike",
      "outputs": [
        {
          "name": "bikeID",
          "type": "uint256"
        }
      ],
      "payable": false,
      "stateMutability": "nonpayable",
      "type": "function"
    },
    {
      "constant": true,
      "inputs": [
        {
          "name": "bikeID",
          "type": "uint256"
        }
      ],
      "name": "getBike",
      "outputs": [
        {
          "name": "_name",
          "type": "string"
        },
        {
          "name": "_color",
          "type": "string"
        },
        {
          "name": "_wheels",
          "type": "uint256"
        },
        {
          "name": "_brakes",
          "type": "string"
        },
        {
          "name": "basket",
          "type": "string"
        }
      ],
      "payable": false,
      "stateMutability": "view",
      "type": "function"
    },
    {
      "constant": false,
      "inputs": [
        {
          "name": "bikeID",
          "type": "uint256"
        },
        {
          "name": "newOwner",
          "type": "address"
        }
      ],
      "name": "transferBike",
      "outputs": [
        {
          "name": "_bike",
          "type": "uint256"
        },
        {
          "name": "_newOwner",
          "type": "address"
        }
      ],
      "payable": false,
      "stateMutability": "nonpayable",
      "type": "function"
    }
  ],
  "bytecode": "0x608060405234801561001057600080fd5b50610ad5806100206000396000f30060806040526004361061006d576000357c0100000000000000000000000000000000000000000000000000000000900463ffffffff16806301f7deba14610072578063828e80a7146101cb5780638da5cb5b146101f6578063aafbbe031461024d578063c55247b71461043e575b600080fd5b34801561007e57600080fd5b506101b5600480360381019080803590602001908201803590602001908080601f0160208091040260200160405190810160405280939291908181526020018383808284378201915050505050509192919290803590602001908201803590602001908080601f016020809104026020016040519081016040528093929190818152602001838380828437820191505050505050919291929080359060200190929190803590602001908201803590602001908080601f0160208091040260200160405190810160405280939291908181526020018383808284378201915050505050509192919290803590602001908201803590602001908080601f01602080910402602001604051908101604052809392919081815260200183838082843782019150505050505091929192905050506104d2565b6040518082815260200191505060405180910390f35b3480156101d757600080fd5b506101e06105ea565b6040518082815260200191505060405180910390f35b34801561020257600080fd5b5061020b6105f0565b604051808273ffffffffffffffffffffffffffffffffffffffff1673ffffffffffffffffffffffffffffffffffffffff16815260200191505060405180910390f35b34801561025957600080fd5b5061027860048036038101908080359060200190929190505050610615565b604051808060200180602001868152602001806020018060200185810385528a818151815260200191508051906020019080838360005b838110156102ca5780820151818401526020810190506102af565b50505050905090810190601f1680156102f75780820380516001836020036101000a031916815260200191505b50858103845289818151815260200191508051906020019080838360005b83811015610330578082015181840152602081019050610315565b50505050905090810190601f16801561035d5780820380516001836020036101000a031916815260200191505b50858103835287818151815260200191508051906020019080838360005b8381101561039657808201518184015260208101905061037b565b50505050905090810190601f1680156103c35780820380516001836020036101000a031916815260200191505b50858103825286818151815260200191508051906020019080838360005b838110156103fc5780820151818401526020810190506103e1565b50505050905090810190601f1680156104295780820380516001836020036101000a031916815260200191505b50995050505050505050505060405180910390f35b34801561044a57600080fd5b5061048960048036038101908080359060200190929190803573ffffffffffffffffffffffffffffffffffffffff169060200190929190505050610921565b604051808381526020018273ffffffffffffffffffffffffffffffffffffffff1673ffffffffffffffffffffffffffffffffffffffff1681526020019250505060405180910390f35b600060328651111580156104e857506032855111155b80156104f657506032835111155b801561050457506032825111155b151561050f57600080fd5b6002600081548092919060010191905055905060a060405190810160405280878152602001868152602001858152602001848152602001838152506001600083815260200190815260200160002060008201518160000190805190602001906105799291906109d4565b5060208201518160010190805190602001906105969291906109d4565b506040820151816002015560608201518160030190805190602001906105bd9291906109d4565b5060808201518160040190805190602001906105da9291906109d4565b5090505080905095945050505050565b60025481565b6000809054906101000a900473ffffffffffffffffffffffffffffffffffffffff1681565b6060806000606080610625610a54565b6002548710151561063557600080fd5b6001600088815260200190815260200160002060a06040519081016040529081600082018054600181600116156101000203166002900480601f0160208091040260200160405190810160405280929190818152602001828054600181600116156101000203166002900480156106ed5780601f106106c2576101008083540402835291602001916106ed565b820191906000526020600020905b8154815290600101906020018083116106d057829003601f168201915b50505050508152602001600182018054600181600116156101000203166002900480601f01602080910402602001604051908101604052809291908181526020018280546001816001161561010002031660029004801561078f5780601f106107645761010080835404028352916020019161078f565b820191906000526020600020905b81548152906001019060200180831161077257829003601f168201915b5050505050815260200160028201548152602001600382018054600181600116156101000203166002900480601f01602080910402602001604051908101604052809291908181526020018280546001816001161561010002031660029004801561083b5780601f106108105761010080835404028352916020019161083b565b820191906000526020600020905b81548152906001019060200180831161081e57829003601f168201915b50505050508152602001600482018054600181600116156101000203166002900480601f0160208091040260200160405190810160405280929190818152602001828054600181600116156101000203166002900480156108dd5780601f106108b2576101008083540402835291602001916108dd565b820191906000526020600020905b8154815290600101906020018083116108c057829003601f168201915b505050505081525050905080600001518160200151826040015183606001518460800151849450839350819150809050955095509550955095505091939590929450565b60008060008073ffffffffffffffffffffffffffffffffffffffff168473ffffffffffffffffffffffffffffffffffffffff161415151561096157600080fd5b6002548510151561097157600080fd5b836000806101000a81548173ffffffffffffffffffffffffffffffffffffffff021916908373ffffffffffffffffffffffffffffffffffffffff160217905550600160008681526020019081526020016000209050848492509250509250929050565b828054600181600116156101000203166002900490600052602060002090601f016020900481019282601f10610a1557805160ff1916838001178555610a43565b82800160010185558215610a43579182015b82811115610a42578251825591602001919060010190610a27565b5b509050610a509190610a84565b5090565b60a06040519081016040528060608152602001606081526020016000815260200160608152602001606081525090565b610aa691905b80821115610aa2576000816000905550600101610a8a565b5090565b905600a165627a7a72305820be6210105930bc3b9ba6de17b3c485bd03446417cc4080f4f4f1a82299133a160029",
  "source": "pragma solidity ^0.4.23;\n\ncontract BikeRegistry {\n\n    address public owner;\n    \n    struct Bike {\n        string name;\n        string color;\n        uint wheels;\n        string brakes;\n        string basket;\n    }\n\n    mapping (uint => Bike) bikes;\n\n    uint public nextBikeNum;\n\n    /* Function registers a bicycle into the Bike Registry */\n    function registerBike(string _name, string _color, uint _wheels, string _brakes, string _basket) public returns (uint bikeID) {\n\n        require( (bytes(_name).length <= 50) && (bytes(_color).length <= 50) && (bytes(_brakes).length <= 50) && (bytes(_basket).length <= 50) );\n\n        bikeID = nextBikeNum++;\n\n        bikes[bikeID] = Bike(_name, _color, _wheels, _brakes, _basket);\n\n        return bikeID;\n    }\n\n    /* Function retrieves bicycle from Bike Registry */\n    function getBike(uint bikeID) view external returns (string _name, string _color, uint _wheels, string _brakes, string basket) {\n\n        require(bikeID < nextBikeNum);\n\n        Bike memory bi = bikes[bikeID];\n\n        return (bi.name, bi.color, bi.wheels, bi.brakes, bi.basket);\n    }\n\n    /* Function transfer ownership of bikeID */\n    function transferBike(uint bikeID, address newOwner) public returns (uint _bike, address _newOwner) {\n\n        require(newOwner != address(0));\n        require(bikeID < nextBikeNum);\n\n        owner = newOwner;\n\n        Bike storage bike = bikes[bikeID];\n\n        return (bikeID, newOwner);\n\n    }\n\n\n}\n",
  "sourcePath": "/Users/PatrickLoughrey/Documents/ethereum-bike-registry/contracts/BikeRegistry.sol",
  "compiler": {
    "name": "solc",
    "version": "0.4.23+commit.124ca40d.Emscripten.clang"
  },
  "schemaVersion": "2.0.0",
  "updatedAt": "2018-10-27T20:43:36.776Z"
}