{
  "contractName": "BikeRegistry",
  "abi": [
    {
      "constant": true,
      "inputs": [
        {
          "name": "",
          "type": "uint256"
        }
      ],
      "name": "id_to_addr",
      "outputs": [
        {
          "name": "",
          "type": "address"
        }
      ],
      "payable": false,
      "stateMutability": "view",
      "type": "function"
    },
    {
      "constant": true,
      "inputs": [
        {
          "name": "",
          "type": "uint256"
        }
      ],
      "name": "id_to_bikes",
      "outputs": [
        {
          "name": "name",
          "type": "string"
        },
        {
          "name": "color",
          "type": "string"
        },
        {
          "name": "wheels",
          "type": "uint256"
        },
        {
          "name": "brakes",
          "type": "string"
        },
        {
          "name": "basket",
          "type": "string"
        }
      ],
      "payable": false,
      "stateMutability": "view",
      "type": "function"
    },
    {
      "constant": false,
      "inputs": [],
      "name": "renounceOwnership",
      "outputs": [],
      "payable": false,
      "stateMutability": "nonpayable",
      "type": "function"
    },
    {
      "constant": true,
      "inputs": [],
      "name": "nextBikeNum",
      "outputs": [
        {
          "name": "",
          "type": "uint256"
        }
      ],
      "payable": false,
      "stateMutability": "view",
      "type": "function"
    },
    {
      "constant": true,
      "inputs": [],
      "name": "owner",
      "outputs": [
        {
          "name": "",
          "type": "address"
        }
      ],
      "payable": false,
      "stateMutability": "view",
      "type": "function"
    },
    {
      "constant": true,
      "inputs": [],
      "name": "isOwner",
      "outputs": [
        {
          "name": "",
          "type": "bool"
        }
      ],
      "payable": false,
      "stateMutability": "view",
      "type": "function"
    },
    {
      "constant": false,
      "inputs": [
        {
          "name": "newOwner",
          "type": "address"
        }
      ],
      "name": "transferOwnership",
      "outputs": [],
      "payable": false,
      "stateMutability": "nonpayable",
      "type": "function"
    },
    {
      "anonymous": false,
      "inputs": [
        {
          "indexed": true,
          "name": "previousOwner",
          "type": "address"
        },
        {
          "indexed": true,
          "name": "newOwner",
          "type": "address"
        }
      ],
      "name": "OwnershipTransferred",
      "type": "event"
    },
    {
      "constant": false,
      "inputs": [
        {
          "name": "_name",
          "type": "string"
        },
        {
          "name": "_color",
          "type": "string"
        },
        {
          "name": "_wheels",
          "type": "uint256"
        },
        {
          "name": "_brakes",
          "type": "string"
        },
        {
          "name": "_basket",
          "type": "string"
        }
      ],
      "name": "registerBike",
      "outputs": [
        {
          "name": "bikeID",
          "type": "uint256"
        }
      ],
      "payable": false,
      "stateMutability": "nonpayable",
      "type": "function"
    },
    {
      "constant": true,
      "inputs": [
        {
          "name": "bikeID",
          "type": "uint256"
        }
      ],
      "name": "getBike",
      "outputs": [
        {
          "name": "_name",
          "type": "string"
        },
        {
          "name": "_color",
          "type": "string"
        },
        {
          "name": "_wheels",
          "type": "uint256"
        },
        {
          "name": "_brakes",
          "type": "string"
        },
        {
          "name": "basket",
          "type": "string"
        }
      ],
      "payable": false,
      "stateMutability": "view",
      "type": "function"
    },
    {
      "constant": false,
      "inputs": [
        {
          "name": "bikeID",
          "type": "uint256"
        },
        {
          "name": "newOwner",
          "type": "address"
        }
      ],
      "name": "transferBike",
      "outputs": [
        {
          "name": "a",
          "type": "bool"
        }
      ],
      "payable": false,
      "stateMutability": "nonpayable",
      "type": "function"
    }
  ],
  "bytecode": "0x6080604052336000806101000a81548173ffffffffffffffffffffffffffffffffffffffff021916908373ffffffffffffffffffffffffffffffffffffffff1602179055506000809054906101000a900473ffffffffffffffffffffffffffffffffffffffff1673ffffffffffffffffffffffffffffffffffffffff16600073ffffffffffffffffffffffffffffffffffffffff167f8be0079c531659141344cd1fd0a4f28419497f9722a3daafe3b4186f6b6457e060405160405180910390a361139c806100cf6000396000f3006080604052600436106100a4576000357c0100000000000000000000000000000000000000000000000000000000900463ffffffff16806301f7deba146100a957806338be564214610202578063590c7bea1461026f578063715018a614610460578063828e80a7146104775780638da5cb5b146104a25780638f32d59b146104f9578063aafbbe0314610528578063c55247b714610719578063f2fde38b1461077e575b600080fd5b3480156100b557600080fd5b506101ec600480360381019080803590602001908201803590602001908080601f0160208091040260200160405190810160405280939291908181526020018383808284378201915050505050509192919290803590602001908201803590602001908080601f016020809104026020016040519081016040528093929190818152602001838380828437820191505050505050919291929080359060200190929190803590602001908201803590602001908080601f0160208091040260200160405190810160405280939291908181526020018383808284378201915050505050509192919290803590602001908201803590602001908080601f01602080910402602001604051908101604052809392919081815260200183838082843782019150505050505091929192905050506107c1565b6040518082815260200191505060405180910390f35b34801561020e57600080fd5b5061022d6004803603810190808035906020019092919050505061093e565b604051808273ffffffffffffffffffffffffffffffffffffffff1673ffffffffffffffffffffffffffffffffffffffff16815260200191505060405180910390f35b34801561027b57600080fd5b5061029a60048036038101908080359060200190929190505050610971565b604051808060200180602001868152602001806020018060200185810385528a818151815260200191508051906020019080838360005b838110156102ec5780820151818401526020810190506102d1565b50505050905090810190601f1680156103195780820380516001836020036101000a031916815260200191505b50858103845289818151815260200191508051906020019080838360005b83811015610352578082015181840152602081019050610337565b50505050905090810190601f16801561037f5780820380516001836020036101000a031916815260200191505b50858103835287818151815260200191508051906020019080838360005b838110156103b857808201518184015260208101905061039d565b50505050905090810190601f1680156103e55780820380516001836020036101000a031916815260200191505b50858103825286818151815260200191508051906020019080838360005b8381101561041e578082015181840152602081019050610403565b50505050905090810190601f16801561044b5780820380516001836020036101000a031916815260200191505b50995050505050505050505060405180910390f35b34801561046c57600080fd5b50610475610c07565b005b34801561048357600080fd5b5061048c610cd9565b6040518082815260200191505060405180910390f35b3480156104ae57600080fd5b506104b7610cdf565b604051808273ffffffffffffffffffffffffffffffffffffffff1673ffffffffffffffffffffffffffffffffffffffff16815260200191505060405180910390f35b34801561050557600080fd5b5061050e610d08565b604051808215151515815260200191505060405180910390f35b34801561053457600080fd5b5061055360048036038101908080359060200190929190505050610d5f565b604051808060200180602001868152602001806020018060200185810385528a818151815260200191508051906020019080838360005b838110156105a557808201518184015260208101905061058a565b50505050905090810190601f1680156105d25780820380516001836020036101000a031916815260200191505b50858103845289818151815260200191508051906020019080838360005b8381101561060b5780820151818401526020810190506105f0565b50505050905090810190601f1680156106385780820380516001836020036101000a031916815260200191505b50858103835287818151815260200191508051906020019080838360005b83811015610671578082015181840152602081019050610656565b50505050905090810190601f16801561069e5780820380516001836020036101000a031916815260200191505b50858103825286818151815260200191508051906020019080838360005b838110156106d75780820151818401526020810190506106bc565b50505050905090810190601f1680156107045780820380516001836020036101000a031916815260200191505b50995050505050505050505060405180910390f35b34801561072557600080fd5b5061076460048036038101908080359060200190929190803573ffffffffffffffffffffffffffffffffffffffff16906020019092919050505061106b565b604051808215151515815260200191505060405180910390f35b34801561078a57600080fd5b506107bf600480360381019080803573ffffffffffffffffffffffffffffffffffffffff169060200190929190505050611182565b005b60006107cb610d08565b15156107d657600080fd5b60328651111580156107ea57506032855111155b80156107f857506032835111155b801561080657506032825111155b151561081157600080fd5b6003600081548092919060010191905055905060a0604051908101604052808781526020018681526020018581526020018481526020018381525060016000838152602001908152602001600020600082015181600001908051906020019061087b92919061129b565b50602082015181600101908051906020019061089892919061129b565b506040820151816002015560608201518160030190805190602001906108bf92919061129b565b5060808201518160040190805190602001906108dc92919061129b565b50905050336002600083815260200190815260200160002060006101000a81548173ffffffffffffffffffffffffffffffffffffffff021916908373ffffffffffffffffffffffffffffffffffffffff16021790555080905095945050505050565b60026020528060005260406000206000915054906101000a900473ffffffffffffffffffffffffffffffffffffffff1681565b6001602052806000526040600020600091509050806000018054600181600116156101000203166002900480601f016020809104026020016040519081016040528092919081815260200182805460018160011615610100020316600290048015610a1d5780601f106109f257610100808354040283529160200191610a1d565b820191906000526020600020905b815481529060010190602001808311610a0057829003601f168201915b505050505090806001018054600181600116156101000203166002900480601f016020809104026020016040519081016040528092919081815260200182805460018160011615610100020316600290048015610abb5780601f10610a9057610100808354040283529160200191610abb565b820191906000526020600020905b815481529060010190602001808311610a9e57829003601f168201915b505050505090806002015490806003018054600181600116156101000203166002900480601f016020809104026020016040519081016040528092919081815260200182805460018160011615610100020316600290048015610b5f5780601f10610b3457610100808354040283529160200191610b5f565b820191906000526020600020905b815481529060010190602001808311610b4257829003601f168201915b505050505090806004018054600181600116156101000203166002900480601f016020809104026020016040519081016040528092919081815260200182805460018160011615610100020316600290048015610bfd5780601f10610bd257610100808354040283529160200191610bfd565b820191906000526020600020905b815481529060010190602001808311610be057829003601f168201915b5050505050905085565b610c0f610d08565b1515610c1a57600080fd5b600073ffffffffffffffffffffffffffffffffffffffff166000809054906101000a900473ffffffffffffffffffffffffffffffffffffffff1673ffffffffffffffffffffffffffffffffffffffff167f8be0079c531659141344cd1fd0a4f28419497f9722a3daafe3b4186f6b6457e060405160405180910390a360008060006101000a81548173ffffffffffffffffffffffffffffffffffffffff021916908373ffffffffffffffffffffffffffffffffffffffff160217905550565b60035481565b60008060009054906101000a900473ffffffffffffffffffffffffffffffffffffffff16905090565b60008060009054906101000a900473ffffffffffffffffffffffffffffffffffffffff1673ffffffffffffffffffffffffffffffffffffffff163373ffffffffffffffffffffffffffffffffffffffff1614905090565b6060806000606080610d6f61131b565b60035487101515610d7f57600080fd5b6001600088815260200190815260200160002060a06040519081016040529081600082018054600181600116156101000203166002900480601f016020809104026020016040519081016040528092919081815260200182805460018160011615610100020316600290048015610e375780601f10610e0c57610100808354040283529160200191610e37565b820191906000526020600020905b815481529060010190602001808311610e1a57829003601f168201915b50505050508152602001600182018054600181600116156101000203166002900480601f016020809104026020016040519081016040528092919081815260200182805460018160011615610100020316600290048015610ed95780601f10610eae57610100808354040283529160200191610ed9565b820191906000526020600020905b815481529060010190602001808311610ebc57829003601f168201915b5050505050815260200160028201548152602001600382018054600181600116156101000203166002900480601f016020809104026020016040519081016040528092919081815260200182805460018160011615610100020316600290048015610f855780601f10610f5a57610100808354040283529160200191610f85565b820191906000526020600020905b815481529060010190602001808311610f6857829003601f168201915b50505050508152602001600482018054600181600116156101000203166002900480601f0160208091040260200160405190810160405280929190818152602001828054600181600116156101000203166002900480156110275780601f10610ffc57610100808354040283529160200191611027565b820191906000526020600020905b81548152906001019060200180831161100a57829003601f168201915b505050505081525050905080600001518160200151826040015183606001518460800151849450839350819150809050955095509550955095505091939590929450565b60003373ffffffffffffffffffffffffffffffffffffffff166002600085815260200190815260200160002060009054906101000a900473ffffffffffffffffffffffffffffffffffffffff1673ffffffffffffffffffffffffffffffffffffffff161415156110da57600080fd5b600073ffffffffffffffffffffffffffffffffffffffff168273ffffffffffffffffffffffffffffffffffffffff161415151561111657600080fd5b6003548310151561112657600080fd5b816002600085815260200190815260200160002060006101000a81548173ffffffffffffffffffffffffffffffffffffffff021916908373ffffffffffffffffffffffffffffffffffffffff1602179055506001905092915050565b61118a610d08565b151561119557600080fd5b61119e816111a1565b50565b600073ffffffffffffffffffffffffffffffffffffffff168173ffffffffffffffffffffffffffffffffffffffff16141515156111dd57600080fd5b8073ffffffffffffffffffffffffffffffffffffffff166000809054906101000a900473ffffffffffffffffffffffffffffffffffffffff1673ffffffffffffffffffffffffffffffffffffffff167f8be0079c531659141344cd1fd0a4f28419497f9722a3daafe3b4186f6b6457e060405160405180910390a3806000806101000a81548173ffffffffffffffffffffffffffffffffffffffff021916908373ffffffffffffffffffffffffffffffffffffffff16021790555050565b828054600181600116156101000203166002900490600052602060002090601f016020900481019282601f106112dc57805160ff191683800117855561130a565b8280016001018555821561130a579182015b828111156113095782518255916020019190600101906112ee565b5b509050611317919061134b565b5090565b60a06040519081016040528060608152602001606081526020016000815260200160608152602001606081525090565b61136d91905b80821115611369576000816000905550600101611351565b5090565b905600a165627a7a72305820367ae6ed16278923cb6ac8b9adee9204426d12ebcdbc6c467fa1c23787fb40a90029",
  "source": "pragma solidity ^0.4.23;\nimport 'openzeppelin-solidity/contracts/ownership/Ownable.sol';\n\ncontract BikeRegistry is Ownable {\n\n    struct Bike {\n        string name;\n        string color;\n        uint wheels;\n        string brakes;\n        string basket;\n    }\n\n    mapping (uint => Bike) public id_to_bikes;\n    // one person can own many bikes\n    mapping (uint => address) public id_to_addr;\n\n    /*\n      mapping (address => uint) public addr_to_id;\n        in this mapping, one person owns one bike, and that is all\n\n    */\n\n    uint public nextBikeNum;\n\n    /* Function registers a bicycle into the Bike Registry */\n    function registerBike(string _name, string _color, uint _wheels, string _brakes, string _basket) public onlyOwner returns (uint bikeID) {\n\n        require( (bytes(_name).length <= 50) && (bytes(_color).length <= 50) && (bytes(_brakes).length <= 50) && (bytes(_basket).length <= 50) );\n\n        bikeID = nextBikeNum++;\n\n        id_to_bikes[bikeID] = Bike(_name, _color, _wheels, _brakes, _basket);\n\n        id_to_addr[bikeID] = msg.sender;\n\n        return bikeID;\n    }\n\n    /* Function retrieves bicycle from Bike Registry */\n    function getBike(uint bikeID) view external returns (string _name, string _color, uint _wheels, string _brakes, string basket) {\n\n        require(bikeID < nextBikeNum);\n\n        Bike memory bi = id_to_bikes[bikeID];\n\n        return (bi.name, bi.color, bi.wheels, bi.brakes, bi.basket);\n    }\n\n    /* Function transfer ownership of bikeID */\n    function transferBike(uint bikeID, address newOwner) public returns (bool a) {\n        require(id_to_addr[bikeID] == msg.sender);\n        require(newOwner != address(0));\n        require(bikeID < nextBikeNum);\n\n        id_to_addr[bikeID] = newOwner;\n\n        return true;\n\n    }\n\n\n}\n",
  "sourcePath": "/Users/PatrickLoughrey/Documents/ethereum-bike-registry/contracts/BikeRegistry.sol",
  "compiler": {
    "name": "solc",
    "version": "0.4.23+commit.124ca40d.Emscripten.clang"
  },
  "schemaVersion": "2.0.0",
  "updatedAt": "2018-11-01T23:28:48.931Z"
}